{
  "_format": "hh-sol-artifact-1",
  "contractName": "Casino",
  "sourceName": "contracts/Casino.sol",
  "abi": [
    {
      "anonymous": false,
      "inputs": [
        {
          "indexed": true,
          "internalType": "uint256",
          "name": "_commitment",
          "type": "uint256"
        },
        {
          "indexed": true,
          "internalType": "address",
          "name": "_sideA",
          "type": "address"
        }
      ],
      "name": "BetAccepted",
      "type": "event"
    },
    {
      "anonymous": false,
      "inputs": [
        {
          "indexed": true,
          "internalType": "uint256",
          "name": "_commitment",
          "type": "uint256"
        },
        {
          "indexed": false,
          "internalType": "uint256",
          "name": "value",
          "type": "uint256"
        }
      ],
      "name": "BetProposed",
      "type": "event"
    },
    {
      "anonymous": false,
      "inputs": [
        {
          "indexed": true,
          "internalType": "uint256",
          "name": "_commitment",
          "type": "uint256"
        },
        {
          "indexed": false,
          "internalType": "address",
          "name": "winner",
          "type": "address"
        },
        {
          "indexed": false,
          "internalType": "address",
          "name": "loser",
          "type": "address"
        },
        {
          "indexed": false,
          "internalType": "uint256",
          "name": "value",
          "type": "uint256"
        }
      ],
      "name": "BetSettled",
      "type": "event"
    },
    {
      "inputs": [
        {
          "internalType": "uint256",
          "name": "_commitment",
          "type": "uint256"
        },
        {
          "internalType": "uint256",
          "name": "_random",
          "type": "uint256"
        }
      ],
      "name": "acceptBet",
      "outputs": [],
      "stateMutability": "payable",
      "type": "function"
    },
    {
      "inputs": [
        {
          "internalType": "uint256",
          "name": "",
          "type": "uint256"
        }
      ],
      "name": "acceptedBet",
      "outputs": [
        {
          "internalType": "address",
          "name": "sideB",
          "type": "address"
        },
        {
          "internalType": "uint256",
          "name": "acceptedAt",
          "type": "uint256"
        },
        {
          "internalType": "uint256",
          "name": "randomB",
          "type": "uint256"
        }
      ],
      "stateMutability": "view",
      "type": "function"
    },
    {
      "inputs": [
        {
          "internalType": "uint256",
          "name": "_commitment",
          "type": "uint256"
        }
      ],
      "name": "proposeBet",
      "outputs": [],
      "stateMutability": "payable",
      "type": "function"
    },
    {
      "inputs": [
        {
          "internalType": "uint256",
          "name": "",
          "type": "uint256"
        }
      ],
      "name": "proposedBet",
      "outputs": [
        {
          "internalType": "address",
          "name": "sideA",
          "type": "address"
        },
        {
          "internalType": "uint256",
          "name": "value",
          "type": "uint256"
        },
        {
          "internalType": "uint256",
          "name": "placedAt",
          "type": "uint256"
        },
        {
          "internalType": "bool",
          "name": "accepted",
          "type": "bool"
        }
      ],
      "stateMutability": "view",
      "type": "function"
    },
    {
      "inputs": [
        {
          "internalType": "uint256",
          "name": "_random",
          "type": "uint256"
        }
      ],
      "name": "reveal",
      "outputs": [],
      "stateMutability": "nonpayable",
      "type": "function"
    }
  ],
  "bytecode": "0x608060405234801561001057600080fd5b506111b8806100206000396000f3fe60806040526004361061004a5760003560e01c80630a3f297a1461004f578063427051c81461008f57806386e30f2e146100ce578063c2ca0ac5146100ea578063d43faafd14610113575b600080fd5b34801561005b57600080fd5b5061007660048036038101906100719190610a6d565b61012f565b6040516100869493929190610b05565b60405180910390f35b34801561009b57600080fd5b506100b660048036038101906100b19190610a6d565b61018c565b6040516100c593929190610b4a565b60405180910390f35b6100e860048036038101906100e39190610b81565b6101d6565b005b3480156100f657600080fd5b50610111600480360381019061010c9190610a6d565b61046a565b005b61012d60048036038101906101289190610a6d565b6108d4565b005b60006020528060005260406000206000915090508060000160009054906101000a900473ffffffffffffffffffffffffffffffffffffffff16908060010154908060020154908060030160009054906101000a900460ff16905084565b60016020528060005260406000206000915090508060000160009054906101000a900473ffffffffffffffffffffffffffffffffffffffff16908060010154908060020154905083565b60008083815260200190815260200160002060030160009054906101000a900460ff1615610239576040517f08c379a000000000000000000000000000000000000000000000000000000000815260040161023090610c1e565b60405180910390fd5b600073ffffffffffffffffffffffffffffffffffffffff1660008084815260200190815260200160002060000160009054906101000a900473ffffffffffffffffffffffffffffffffffffffff1673ffffffffffffffffffffffffffffffffffffffff16036102dd576040517f08c379a00000000000000000000000000000000000000000000000000000000081526004016102d490610c8a565b60405180910390fd5b600080838152602001908152602001600020600101543414610334576040517f08c379a000000000000000000000000000000000000000000000000000000000815260040161032b90610cf6565b60405180910390fd5b806001600084815260200190815260200160002060020181905550426001600084815260200190815260200160002060010181905550336001600084815260200190815260200160002060000160006101000a81548173ffffffffffffffffffffffffffffffffffffffff021916908373ffffffffffffffffffffffffffffffffffffffff160217905550600160008084815260200190815260200160002060030160006101000a81548160ff02191690831515021790555060008083815260200190815260200160002060000160009054906101000a900473ffffffffffffffffffffffffffffffffffffffff1673ffffffffffffffffffffffffffffffffffffffff16827fb727a22534e43d337addefe6245e691859b29f7bf356bc7e6d77ff92070fe12460405160405180910390a35050565b60008160405160200161047d9190610d37565b6040516020818303038152906040528051906020012060001c9050600033905060006001600084815260200190815260200160002060000160009054906101000a900473ffffffffffffffffffffffffffffffffffffffff169050600060016000858152602001908152602001600020600201548518905060008060008681526020019081526020016000206001015490503373ffffffffffffffffffffffffffffffffffffffff1660008087815260200190815260200160002060000160009054906101000a900473ffffffffffffffffffffffffffffffffffffffff1673ffffffffffffffffffffffffffffffffffffffff16146105b2576040517f08c379a00000000000000000000000000000000000000000000000000000000081526004016105a990610dc4565b60405180910390fd5b6001151560008087815260200190815260200160002060030160009054906101000a900460ff1615151461061b576040517f08c379a000000000000000000000000000000000000000000000000000000000815260040161061290610e30565b60405180910390fd5b600060028361062a9190610e7f565b036107295760008473ffffffffffffffffffffffffffffffffffffffff168260026106559190610edf565b60405161066190610f52565b60006040518083038185875af1925050503d806000811461069e576040519150601f19603f3d011682016040523d82523d6000602084013e6106a3565b606091505b50509050806106e7576040517f08c379a00000000000000000000000000000000000000000000000000000000081526004016106de90610fb3565b60405180910390fd5b857f0de94fe793c61cadb0d5993f7621dc7abda95f3f6e7eac8044a5a9b17ba099d086868560405161071b93929190611032565b60405180910390a25061081f565b60008373ffffffffffffffffffffffffffffffffffffffff1682600261074f9190610edf565b60405161075b90610f52565b60006040518083038185875af1925050503d8060008114610798576040519150601f19603f3d011682016040523d82523d6000602084013e61079d565b606091505b50509050806107e1576040517f08c379a00000000000000000000000000000000000000000000000000000000081526004016107d890610fb3565b60405180910390fd5b857f0de94fe793c61cadb0d5993f7621dc7abda95f3f6e7eac8044a5a9b17ba099d085878560405161081593929190611032565b60405180910390a2505b600080868152602001908152602001600020600080820160006101000a81549073ffffffffffffffffffffffffffffffffffffffff0219169055600182016000905560028201600090556003820160006101000a81549060ff0219169055505060016000868152602001908152602001600020600080820160006101000a81549073ffffffffffffffffffffffffffffffffffffffff0219169055600182016000905560028201600090555050505050505050565b6000806000838152602001908152602001600020600101541461092c576040517f08c379a0000000000000000000000000000000000000000000000000000000008152600401610923906110db565b60405180910390fd5b6000341161096f576040517f08c379a000000000000000000000000000000000000000000000000000000000815260040161096690611147565b60405180910390fd5b3360008083815260200190815260200160002060000160006101000a81548173ffffffffffffffffffffffffffffffffffffffff021916908373ffffffffffffffffffffffffffffffffffffffff16021790555034600080838152602001908152602001600020600101819055504260008083815260200190815260200160002060020181905550807fbe20caab9fd377d44064d0b07b3f918ac14a5649351da4e9e27f29989d96a8e834604051610a279190611167565b60405180910390a250565b600080fd5b6000819050919050565b610a4a81610a37565b8114610a5557600080fd5b50565b600081359050610a6781610a41565b92915050565b600060208284031215610a8357610a82610a32565b5b6000610a9184828501610a58565b91505092915050565b600073ffffffffffffffffffffffffffffffffffffffff82169050919050565b6000610ac582610a9a565b9050919050565b610ad581610aba565b82525050565b610ae481610a37565b82525050565b60008115159050919050565b610aff81610aea565b82525050565b6000608082019050610b1a6000830187610acc565b610b276020830186610adb565b610b346040830185610adb565b610b416060830184610af6565b95945050505050565b6000606082019050610b5f6000830186610acc565b610b6c6020830185610adb565b610b796040830184610adb565b949350505050565b60008060408385031215610b9857610b97610a32565b5b6000610ba685828601610a58565b9250506020610bb785828601610a58565b9150509250929050565b600082825260208201905092915050565b7f4265742068617320616c7265616479206265656e2061636365707465642e0000600082015250565b6000610c08601e83610bc1565b9150610c1382610bd2565b602082019050919050565b60006020820190508181036000830152610c3781610bfb565b9050919050565b7f426574206861736e2774206265656e2070726f706f7365642e00000000000000600082015250565b6000610c74601983610bc1565b9150610c7f82610c3e565b602082019050919050565b60006020820190508181036000830152610ca381610c67565b9050919050565b7f4265742076616c7565206e6565647320746f206265207468652073616d652e00600082015250565b6000610ce0601f83610bc1565b9150610ceb82610caa565b602082019050919050565b60006020820190508181036000830152610d0f81610cd3565b9050919050565b6000819050919050565b610d31610d2c82610a37565b610d16565b82525050565b6000610d438284610d20565b60208201915081905092915050565b7f426574206e6f7420706c6163656420627920796f75206f722077726f6e67207660008201527f616c75652e000000000000000000000000000000000000000000000000000000602082015250565b6000610dae602583610bc1565b9150610db982610d52565b604082019050919050565b60006020820190508181036000830152610ddd81610da1565b9050919050565b7f426574206861736e2774206265656e206163636570746564207965742e000000600082015250565b6000610e1a601d83610bc1565b9150610e2582610de4565b602082019050919050565b60006020820190508181036000830152610e4981610e0d565b9050919050565b7f4e487b7100000000000000000000000000000000000000000000000000000000600052601260045260246000fd5b6000610e8a82610a37565b9150610e9583610a37565b925082610ea557610ea4610e50565b5b828206905092915050565b7f4e487b7100000000000000000000000000000000000000000000000000000000600052601160045260246000fd5b6000610eea82610a37565b9150610ef583610a37565b9250828202610f0381610a37565b91508282048414831517610f1a57610f19610eb0565b5b5092915050565b600081905092915050565b50565b6000610f3c600083610f21565b9150610f4782610f2c565b600082019050919050565b6000610f5d82610f2f565b9150819050919050565b7f4661696c656420746f2073656e64206265742077696e6e696e67732e00000000600082015250565b6000610f9d601c83610bc1565b9150610fa882610f67565b602082019050919050565b60006020820190508181036000830152610fcc81610f90565b9050919050565b6000819050919050565b6000610ff8610ff3610fee84610a9a565b610fd3565b610a9a565b9050919050565b600061100a82610fdd565b9050919050565b600061101c82610fff565b9050919050565b61102c81611011565b82525050565b60006060820190506110476000830186611023565b6110546020830185611023565b6110616040830184610adb565b949350505050565b7f42657420616c726561647920706c61636564206f6e207468617420636f6d6d6960008201527f746d656e742e0000000000000000000000000000000000000000000000000000602082015250565b60006110c5602683610bc1565b91506110d082611069565b604082019050919050565b600060208201905081810360008301526110f4816110b8565b9050919050565b7f4265742076616c75652063616e2774206265207a65726f2e0000000000000000600082015250565b6000611131601883610bc1565b915061113c826110fb565b602082019050919050565b6000602082019050818103600083015261116081611124565b9050919050565b600060208201905061117c6000830184610adb565b9291505056fea2646970667358221220a3b07a5ba54b76d38b62f533884df5f14824465d906db6f9906d485c8def64ae64736f6c63430008180033",
  "linkReferences": {},
  "deployedLinkReferences": {}
}